:020000040000FA
:10000000803102288731D82FFE0012001E00FE0B1F
:10001000052800342000A701A801A001A10115288E
:100020000130F6070030F73D1528A601A60A76082C
:100030008400770885001200203A0319202821281F
:10004000372876088400770885000008F73EF80016
:10005000FF3003180030F900003079020530031931
:100060007802031C342835283728A60137282608AB
:10007000F800F9017808A2007908A300532876084F
:100080008400770885000008F800F9017808F0007E
:100090007908F1009531FA25803171082000A3001C
:1000A0007008A200532822082304031D5828592849
:1000B00010286528652801302000A0000030A1002C
:1000C0000130F6070030F73DA22876088400770853
:1000D00085000008F800F9017908003A0319712831
:1000E000A22878082B3A03196028063A03195B28DE
:1000F000A228A22876088400770885000008D03E50
:10010000F800FF3003180030F900F809F909F80A7F
:100110000319F90A20002808F1002708F0000A3026
:10012000F2000030F3009531B52580317808700772
:100130002000A7007908713DA8000130F6070030C3
:10014000F73DA22876088400770885000008D03E95
:10015000F800FF3003180030F900003079020A304F
:1001600003197802031CB528B7280130B8280030DD
:10017000FA00FB017A082000A4007B08A500D4281F
:1001800076088400770885000008F800F9017808EF
:10019000F0007908F1009431FA24803171082000D0
:1001A000A5007008A400D42824082504031DD9281C
:1001B000DA287A28DB2820082104031DE028E1281A
:1001C000ED282709F8002809F900F80A0319F90AA7
:1001D0007808F6007908F700F3282808F7002708C0
:1001E000F600F328F32808002000DD004808860008
:1001F0008701403FCA00413FCB004A0884004B08BA
:1002000085001200253A031D06290729162C4808E7
:10021000860087010130810741310318810A2100DE
:10022000C701C801CB01CC01FF30C900FF30CA00B3
:100230002000D301D40184295F2921004B14200020
:100240004808860087010130810741310318810A7F
:1002500084292100CB142000480886008701013042
:10026000810741310318810A842921004B152000A0
:100270004808860087010130810741310318810A4F
:1002800084292100CB152000480886008701013011
:10029000810741310318810A842921004B1620006F
:1002A0004808860087010130810741310318810A1F
:1002B00084290130D3000030D400842984294808DF
:1002C00086008701403FCA00413FCB004A088400B6
:1002D0004B0885000008CC00CD014D08003A0319F9
:1002E000722959294C08203A03194129033A031964
:1002F0004D29083A03193529063A03191D291D3AD3
:1003000003192929592984295308540403198929CF
:100310008A295F2921004B1C8E298F299429FD30C1
:10032000CB05FF30CC0594292000480886008701C2
:10033000403FCA00413FCB004A0884004B0885007B
:1003400012002A3A031DA529A629C72948088600B4
:1003500087010130810741310318810A490886006D
:10036000870101088400850102308107003F2100D8
:10037000C700013FC800C81FBE29BF292A2A4B1445
:10038000C709C809C70A0319C80A2A2A2A2A200045
:10039000480886008701403FF600413FF700803162
:1003A0000A20803177082100C8007608C700E229BA
:1003B0002000480886008701013081074131031879
:1003C000810AE2292000480886008701403FCA00D0
:1003D000413FCB004A0884004B0885000008D03E0E
:1003E000CC00FF3003180030CD0000304D020A3041
:1003F00003194C02031CFD29FF290130002A00309B
:10040000CE00CF014E08D5004F08D600222A48085A
:1004100086008701403FCA00413FCB004A08840064
:100420004B0885000008CC00CD014C08F0004D08B9
:10043000F1009431FA24803171082000D600700850
:10044000D500222A55085604031D272A282AD82910
:100450002A2A2A2A2000480886008701403FCA002D
:10046000413FCB004A0884004B08850012002E3A19
:10047000031D3B2A3C2AD32A2100C901CA012000BE
:100480004808860087010130810741310318810A3D
:10049000480886008701403FCA00413FCB004A0818
:1004A00084004B08850012002A3A031D582A592A55
:1004B0006F2A4808860087010130810741310318FF
:1004C000810A4908860087010108840085010230FD
:1004D0008107003F2100C900013FCA00D32A200044
:1004E000480886008701403FF600413FF700803111
:1004F0000A20803177082100CA007608C9008A2ABC
:100500002000480886008701013081074131031827
:10051000810A8A2A2000480886008701403FCA00D5
:10052000413FCB004A0884004B0885000008D03EBC
:10053000CC00FF3003180030CD0000304D020A30EF
:1005400003194C02031CA52AA72A0130A82A00304F
:10055000CE00CF014E08D7004F08D800CA2A48085D
:1005600086008701403FCA00413FCB004A08840013
:100570004B0885000008CC00CD014C08F0004D0868
:10058000F1009431FA24803171082000D8007008FD
:10059000D700CA2A57085804031DCF2AD02A802A18
:1005A000D32AD32AD32A2000480886008701403F57
:1005B000CA00413FCB004A0884004B088500120066
:1005C0006E3A031DE42AE52A052B480886008701B8
:1005D0000130810741310318810A490886008701EB
:1005E000403F84008501810A0008CA004A08D20001
:1005F00052088600870121004508C03F4608C13FD8
:100600002000C801C9013D2C3D2C48088600870107
:10061000403FCA00413FCB004A0884004B08850098
:100620001200703A031D152B162B492B4808860023
:1006300087010130810741310318810A490886008A
:100640008701403F84008501810A0008CA00CB0170
:10065000CC01CD014D08DC004C08DB004B08DA0072
:100660004A08D9005C08AF005B08AE005A08AD002C
:100670005908AC007830CA004A08B0005D088D31D6
:100680000A25803120002D08C9002C08C8003D2C07
:100690003D2C480886008701403FCA00413FCB00FF
:1006A0004A0884004B0885001200733A031D592B39
:1006B0005A2B7C2B48088600870101308107413185
:1006C0000318810A490886008701403F840085019C
:1006D000810A0008CA004A08D1005108CA004A0825
:1006E000F8005D088C312924803179082000C90088
:1006F0007808C8003D2C3D2C480886008701403F03
:10070000CA00413FCB004A0884004B088500120014
:10071000783A03198C2B8D2B9F2B48088600870174
:10072000403FCA00413FCB004A0884004B08850087
:100730001200583A031D9D2B9E2BDF2B9F2B480840
:1007400086008701403FCA00413FCB004A08840031
:100750004B0885000008CC004C08D00048088600F3
:1007600087010130810741310318810A4908860059
:10077000870101088400850102308107003FCA001B
:10078000013FCB004A08D9004B08DA00DB01DC014D
:100790005C08AF005B08AE005A08AD005908AC0019
:1007A0005008CA004A08B0005D088D310A25803122
:1007B00020002D08C9002C08C8003D2C3D2C4808FD
:1007C00086008701403FCA00413FCB004A088400B1
:1007D0004B0885001200253A031DEF2BF02B0A2C45
:1007E0004808860087010130810741310318810ADA
:1007F0002530F0000030F1005D08CA004A08F20020
:1008000088313B20803101302000C8000030C90011
:100810003D2C3D2C4808860087010130810741317D
:100820000318810AC801C9013D2C3D2C48088600E7
:100830008701403FCA00413FCB004A0884004B0873
:1008400085000008CC00CD014C08F0004D08F100F7
:100850005D08CE004E08F20088313B208031200038
:100860004808860087010130810741310318810A59
:100870000130C8000030C9003D2C08002100BE0036
:10088000AF01AF0A513020004A02031C482C492C0A
:100890004C2C0630D72FD72F8030CB004B08F400DC
:1008A0000E309431AA2484312100A701BA2FC22C22
:1008B00093302000CB004B082100B000BB01AA01FF
:1008C00020004A080319652C662C732C21003E0871
:1008D0008600870105300102031C6F2C702C732CDD
:1008E000AA01AA0A732C21002A08031D782C7A2C4D
:1008F00001307B2C00302000CB004B082100BA00D7
:10090000D72C95302000CB004B082100B0000330DD
:100910002000CB004B082100BB00AB0120004A089F
:100920000319932C942CA12C21003E0886008701EA
:1009300008300102031C9D2C9E2CA12CAB01AB0A9C
:10094000A12C21002B08031DA62CA82C0130A92CBA
:1009500000302000CB004B082100BA00D72C973084
:100960002000CB004B082100B00006302000CB0057
:100970004B082100BB00BA01D72C0530D72FD72F49
:10098000D72CD72C21002F082000CB00CC014C08FD
:10099000003A0319CC2CBD2C4B08013A0319582CF2
:1009A000033A0319812C013A0319AF2CBD2C210005
:1009B0003B082000CB000230CB35FF3E031DDC2C72
:1009C0004B35FF3A013E4A07CC004C082100C400D9
:1009D000C41FEB2CEC2CEE2CC401EE2C02302000BA
:1009E000CB004B082100C3003A080319F82CF92C5E
:1009F0000A2D88302000CB0021004308B03E86003D
:100A0000870120004B0881000130CB004B082100FA
:100A1000C3070A2D0830F0000030F1004408F2004E
:100A2000F301F21BF3038931462184317008200061
:100A3000CB007108CC000730210044052000CD0018
:100A4000CE014D084E04031D262D282D0130292DE1
:100A500000304B07CF004F082100BD003D080319AF
:100A6000322D332D7D2D3A08031D372D382D3D2D88
:100A70000430A0000030A100412D0330A000003060
:100A8000A10020082000CB004B082100AD003D084C
:100A90002D0203184C2D4D2D542D2D082000CB0078
:100AA0004B082100BD00542DC101752D3B084107A5
:100AB000013E3E072000CB004B088600870101085D
:100AC000CC0021004308B03E8600870120004C087E
:100AD00081000130CB004B082100C307013020000A
:100AE000CB004B082100C107752D3D084102031CB6
:100AF0007A2D7B2D562D7D2D7D2D3A080319812DC4
:100B0000822D892D08302000CB004B082100C4071E
:100B1000892DA801022F4408803A603E031C912DC4
:100B2000922DCF2D70302000CB004B082100B1005A
:100B300032083306340635062000CB004B0821006E
:100B4000B60007302000CB004B08F700B730CC00D0
:100B50004C08F800B0308A31192284312000CD00D1
:100B60004D082100C20042080319B72DB82DBB2D36
:100B70004208D72FD72FC00109302000CB004B08E7
:100B80002100A900B6302000CB004B082100BF0097
:100B900003302000CB004B082100BC001C2E440871
:100BA00007392000CB004B082100C0000830F000BE
:100BB0000030F1004408F200F301F21BF303893125
:100BC0004621843170082000CB004B082100C10071
:100BD0004108023E2000CB004B082100C30043081F
:100BE0002000CB000330CB35FF3E031DF32D4B35EA
:100BF000210040072000CC004C082100B100400833
:100C0000031D032E052E0130062E00304307200061
:100C1000CB004B082100A9004308B03E2000CB00C8
:100C20004B082100BF004303FF3A093E2000CB00E0
:100C30004B082100BC001C2E40082000CB004B08B4
:100C40002100AC002C082000CB000330CB35FF3E48
:100C5000031D262E4B35210040072000CC004C08F8
:100C6000F1000D30953145258431210029082000FF
:100C7000CB004B08BA0021003F082000CC004C08F4
:100C8000BB00BC30CD004D08BC00C030CE004E08CB
:100C9000BD0021002C082000CF004F08BE00BF017E
:100CA000B0309631742684312000D00050082100E5
:100CB000C20002304206031D5E2E5F2EE42E0E306F
:100CC00095317A2584312000CB004B082100AE00FD
:100CD000AE1E6B2E6C2E6F2E0230D72FD72F2E0804
:100CE0001F392000CB004B082100B9003908031D33
:100CF0007A2E7B2E812E20302000CB004B08210045
:100D0000B90044082000CB00CC01CB1BCC034C081D
:100D1000803ACD0080304D02031D922E210039080B
:100D200020004B02031C952E962E992E0530D72FAE
:100D3000D72F210039082000CB004B082100C40028
:100D4000440807392000CB004B082100C1004408AB
:100D5000FF3E07392000CB004B082100A6000830D9
:100D6000F0000030F1004408F200F301F21BF3033D
:100D700089314621843170082000CB007108CC00F5
:100D800021004108031DC52EC72E0130C82E00309A
:100D900020004B07013ECD004D082100C30001306B
:100DA0002000CB002100260A2000D72ECB35890B4E
:100DB000D62E4B08CC0021004308B03E86008701A8
:100DC00020004C088104022F210042080319E92E5B
:100DD000EA2EEE2E4208D72FD72F022F4408803A52
:100DE000603E031CF42EF52EF82EA801A80A022F4F
:100DF00020302000CB004B082100C400022F022F1E
:100E0000022F022F210028080319072F082F8B2DEE
:100E1000092F8830320603190E2F0F2F142F02309E
:100E2000A2000030A300182F0330A2000030A3005E
:100E300022082000CB004B082100C3008830320676
:100E40000319232F242F292F0430A4000030A500DC
:100E50002D2F0330A4000030A50024082000CB0073
:100E60004B082100BD00C101542F4308B03E86004D
:100E7000870101082000CB0021003B084107013E0B
:100E80003E072000CC004C08860087014B088100FB
:100E90000130CB004B082100C30701302000CB00FC
:100EA0004B082100C107542F3D084102031C592F54
:100EB0005A2F352F5B2F03303C06031D602F612F07
:100EC000672F40080319652F662F6A2F672F01309F
:100ED000D72FD72FF701F70AB2302000CB004B08ED
:100EE000F80021003F088A31192284312000CC000B
:100EF0004C082100C200420803197F2F802F832F46
:100F00004208D72FD72F3F0A8600870132080106F3
:100F1000031D8B2F8C2F972F3F08023E86008701E1
:100F2000330801060319952F962F9A2F972F073014
:100F3000D72FD72F3F0886008701011DA02FA12F93
:100F4000A82F01302000CB004B082100AF07BA2F9B
:100F5000A701A70A3F088600870101082000CB00EF
:100F600021003E080B3E8600870120004B088100CF
:100F7000BA2FBA2F210027080319BF2FC02FC22C68
:100F8000C12F03302000CB004B08F00021002F08B8
:100F90009431E1248431013E2000CC0021003E0840
:100FA0008600870120004C0881000030D72F080000
:100FB0004830840094308500DB30860000308700A4
:100FC0000730803104208731EF01C53084000030C4
:100FD000850016309431422487312030840001305E
:100FE00085003E30943142248731A03084000130A6
:100FF0008500193094314224873120008B31782BC1
:10100200080002302000D7005708DC00F10112303E
:10101200953145258831F1011330953145258831C7
:1010220026302000D7005708F1002430953145259D
:1010320088315C302000D7005708D30059309431F2
:101042009A2488312000D8005808DB005B08031975
:101052002B282C28332802305B06031D3128322826
:101062003728332801303A283A283A2800303A28DB
:101072003A280800720803193F28402846287208B7
:10108200031D442845284B28462870088831012032
:1010920088318F287208033E8600870116000104FA
:1010A20003195428552873287208033E86008701C5
:1010B200403FF300413FF400720A86008701403F3F
:1010C200F500413FF6007608803AF7007408803A4E
:1010D2007702031D6E28730875020318712872289F
:1010E2008F2873287008F300720886008701720A3D
:1010F2008400850100080107F400740886000130AD
:10110200870073088100720A860087010130810717
:1011120041310318810A8F288F288F280800200068
:10112200D0004A08031996289728A1284B08860060
:1011320087010230010203189F28A028A428A128B1
:101142000430E528E5288030CC004C08F4000E304D
:101152009431AA24883107302000CC004C08D200F8
:10116200BA01BA0A4A08CC004C08BB004B08CD00B1
:101172004D08BC005230CE004E08BD00BE01BF017A
:1011820050309631742688312000CF004F08D100AC
:1011920051080319CD28CE28D1285108E528E52881
:1011A2004B088600870102300106031DD928DA2880
:1011B200E02852080319DE28DF28E328E02801305E
:1011C200E528E5280030E52808002000AB002100D2
:1011D2004B1CEC28ED28F72820002B08FC007C088B
:1011E200F800240896311D268831F7282000A61B16
:1011F200FB28FC2801292608AA002508A9000329A2
:10120200A901AA01A701A80118292030F000003085
:10121200F10020002B08FC007C08F20088313B2002
:10122200883101302000A7070030A83D182928087E
:10123200803AFC002A08803A7C02031D22292908F0
:101242002702031C25292629062921004B182A29B1
:101252002B29352920002B08FC007C08F8002408E3
:1012620096311D268831352920002408F0000130EE
:10127200F1009531D7258831200029087007A40094
:101282002A08713DA50045290800F601F11F4A29E7
:101292004B295329F009F109F00A0319F10AF60161
:1012A200F60A5329F31F562957296129F209F3092E
:1012B200F20A0319F30A0130F4007408F6066129F0
:1012C200F701F801700871040319682969299E2938
:1012D200F501F50A76290130F035F10D890B6D29FA
:1012E2000130F4007408F5077629F11F79297A296B
:1012F2006C297C297C290130F735F80D890B7D2971
:1013020071087302031D872970087202031C8A295F
:101312008B2991297008F2027108F33B7714912905
:101322000130F136F00C890B92290130F502031DD0
:101332009B299C297C299E299E2976080319A2298A
:10134200A329A929F709F809F70A0319F80AA9290B
:101352007808F1007708F000AE290800FA002400AE
:10136200951AB429B529182A10303C00A00015306E
:10137200A10012303D00A000143092007A08F6005D
:10138200F7017608F0007708F1000330F200003030
:10139200F3009531B52589317008013EF80000301F
:1013A200713DF9002830780784009830793D850036
:1013B2000008240094007A08F600F7017608F0008D
:1013C2007708F1000330F2000030F3009531B525C3
:1013D20089317108850070088400283084079830AC
:1013E200853D00082A382400950096017A08F60007
:1013F200F7017608F0007708F1000330F2000030C0
:10140200F3009531B52589317008023EF8000030AD
:10141200713DF9002830780784009830793D8500C5
:1014220000082400920021000E10182A182A080031
:101432002000A300F1010130953145258A310430A5
:10144200F9007908F1000530953145258A3180305F
:10145200F9007908F1000A30953145258A3177087B
:10146200F9007908F10020002308FA007A08F20056
:1014720009309631A0268A310330F9007908F1004B
:101482000130953145258A3188302000A100133082
:10149200A20021082204031D4F2A502A522A862A1A
:1014A200862A053095317A258A31F900790820009B
:1014B200A000201D5D2A5E2A7A2AF10101309531B1
:1014C20045258A31223095317A258A31F90078080A
:1014D2008600870179088100213095317A258A3189
:1014E200F900780A86008701790881000030882A8D
:1014F200882A01302000A1020030A23B21082204E8
:10150200031D842A852A522A862A0330882A080043
:10151200F8007108031D8E2A8F2A912AFC2AFC2AC0
:10152200F901932A22008E10962A0130F1027835B1
:101532007E39803894317C248A31F4007408210089
:10154200CE0073080319A62AA72AE42AFF30F40062
:10155200730AAC2AF435890BAB2A7408F5007508B6
:10156200F70078357E39803894317C248A31F40052
:101572007408F60077087605F40072088600870181
:10158200770901057404F500720886008701750861
:1015920081000130F4007408F907E42AE42A78355E
:1015A2007E39803894317C248A31F40079087207BC
:1015B200F500750886008701740881000130F40087
:1015C2007408F907E42A71087902031CE92AEA2A55
:1015D200D02AEB2A003094317C248A31F400790835
:1015E2007207F50075088600870174088100F92AE0
:1015F20022008E14FC2A080000308931AF218A3182
:10160200022B22008E14062B062B21000E16092B0C
:1016120020000E1A0D2B0E2B2A2B21000E12112B3D
:1016220022000E12142B3530890B152B0000192BBA
:1016320022000E160330FC000830FB007730890BC5
:10164200202BFB0B202BFC0B202B0000FD01FD0AA5
:101652002A2B7D08031D2E2B2F2B322B9631482649
:101662008A31F1011230953145258A31F101133069
:10167200953145258A312630FB007B08F100243064
:10168200953145258A318030FB007B08F1002A30F4
:10169200953145258A31A930FB007B08F1002B30BA
:1016A200953145258A310330FB007B08F1002C304F
:1016B200953145258A31E830FB007B08F1002D3059
:1016C200953145258A314030FB007B08F100153009
:1016D200953145258A313D30FB007B08F100113000
:1016E200953145258A3195315F258A31080094313B
:1016F2006F248B318A31FD228B31943163248B31FB
:1017020000302000E6009830E70040309631FC2699
:101712008B31F60140309631CD268B31902B8831BA
:1017220002208B31003A0319972B982B192C403049
:101732002000E6009030E70040309631FC268B31E5
:10174200F60140309631CD268B319431CE248B3147
:10175200003A0319AD2BAE2B192C19302000E600EC
:101762009830E70040309631FC268B312000EF01A3
:10177200FA2B6F08D03E8600870110300102031C4D
:10178200C32BC42BC92B2B30ED009830EE00CE2B8F
:101792002B30ED009830EE00CE2B6E08E7006D087E
:1017A200E60040309631FC268B31F601403096310E
:1017B200CD268B3123302000E6009830E7006F08F9
:1017C200D03E860087010108EB00EC016B08E800BF
:1017D2006C08E90040309631FC268B31F60140302E
:1017E2009631CD268B3101302000EB006B08EF07DC
:1017F200FA2B21004F0820006F02031C012C022C3F
:10180200BA2B032C973161278B3194314F248B31C2
:1018120052302000E6009030E70040309631FC263E
:101822008B31F60140309631CD268B31192C192C93
:1018320029302000EC009630EB007F30890B1F2C02
:10184200EB0B1F2CEC0B1F2C902B902B80310228C2
:101852002000AB00DB30860000308700203084009F
:10186200003085000730FA0016001A00FA0B352CFA
:101872007808FA007A08AC002C08031D412C422C8F
:10188200472C2030FA007A08AC00472C2C08F000D4
:101892000030F1009531D7258C3171082000B0005D
:1018A2007008AF0021004A082000AE00210049085C
:1018B2002000AD00AE1B5E2C5F2C742C2E08803AEB
:1018C200FA003008803A7A02031D692C2F082D0293
:1018D200031C6C2C6D2C6F2C742C742C20002E0885
:1018E200B0002D08AF0020003008AE002F08AD0078
:1018F200210048082000AA00210047082000A90072
:1019020021004B18852C862CAB2C9A2C9A2C20303B
:10191200F0000030F10020002B08FA007A08F200F3
:1019220088313B208C3101302000AF070030B03DC0
:101932009A2C20003008803AFA002A08803A7A026B
:10194200031DA52C29082F02031CA82CA92C882CC6
:10195200AB2CAB2C2000A701A801CB2C20002C081B
:10196200860087010108FA00FB017A08F0007B0873
:10197200F1002B08FC007C08F20088313B208C31FE
:101982000130FA007A082000AC070130A7070030C6
:10199200A83DCB2C2808803AFA002E08803A7A0219
:1019A200031DD52C2D082702031CD82CD92CAF2CB3
:1019B20021004B1CDD2CDE2C032DF22CF22C2030CE
:1019C200F0000030F10020002B08FA007A08F20043
:1019D20088313B208C3101302000AF070030B03D10
:1019E200F22C20003008803AFA002A08803A7A0263
:1019F200031DFD2C29082F02031C002D012DE02CB4
:101A0200032D032D20003008F9002F08F800092DBE
:101A120008002000BB002100CA1B102D112D152D1E
:101A2200FD30CB05FF30CC054A08803A2000B100DA
:101A320080303102031D202D01302100490203189C
:101A4200232D242D2A2D01302000BC000030BD00A2
:101A5200322D21004A082000BD0021004908200043
:101A6200BC00210048082000BF00210047082000D8
:101A7200BE0021004B1E3E2D3F2D442DFE30200086
:101A8200BE07FF30BF3D20002F08C3002E08C20052
:101A92002D08C1002C08C0001F30C4000030C50052
:101AA2004408203E8600013087008101162EFF3057
:101AB2002000C407FF30C53D0F304005C60000308E
:101AC2004105C7004708803AB10080303102031D4A
:101AD2006C2D0A304602031C6F2D702D782D2000CC
:101AE2004608573EC6000030473DC700802D200003
:101AF2004608303EC6000030473DC700802D300802
:101B0200BF3EB100FF3003180030B2000030320295
:101B12001A3003193102031C8F2D912D0130922DA1
:101B22000030B300B4013308B7003408B800A92D5F
:101B32003008B100B2013108F0003208F1009531ED
:101B420013258D3171082000B8007008B700A92D47
:101B5200370838040319AE2DAF2DED2D2030460481
:101B6200B10000304704B20031089F3EB300FF309D
:101B7200323DB400003034021A3003193302031C20
:101B8200C32DC52D0130C62D0030B500B601350874
:101B9200B9003608BA00DA2D4708F1004608F0000D
:101BA200953196258D3171082000BA007008B90070
:101BB200DA2D39083A040319DF2DE02DED2D4708FF
:101BC200F7004608F60097312E278D31770820005E
:101BD200C7007608C600ED2D4608B1004408203E35
:101BE20086000130870031088100FF30BC07FF30DA
:101BF200BD3DFF30BE07FF30BF3D4008B100410888
:101C0200B2004208B3004308B4000430B436B30C47
:101C1200B20CB10C890B072E3408C3003308C20082
:101C22003208C1003108C000162E4508803AB100C2
:101C320080303102031D1F2E02304402031C222E6B
:101C4200232E4E2E20004308420441044004031D6B
:101C52002B2E2C2E582D3D08803AB10080303102B7
:101C6200031D352E01303C020318382E392E582D13
:101C720020003F08803AB10080303102031D432E1C
:101C820001303E02031C462E472E4E2E2100CB1859
:101C92004B2E4C2E582D4E2E4E2E21004B1E522EC8
:101CA200532E6F2EFF302000C407FF30C53D300891
:101CB200B1004408203E86000130870031088100CF
:101CC200FF30C407FF30C53D3030B1004408203E2C
:101CD200860001308700310881006F2E2000440801
:101CE200203EB1003108A4003F08A6003E08A5002E
:101CF2003B088831E6208D3120002508AD002408FC
:101D0200AC00832E08002000B2002908031D8A2E91
:101D12008B2E8E2EAC01AD01992E290886008701EB
:101D22000108FB00FC017B08AC007C08AD00992E89
:101D32002C08FB007B08AE002A08FB000330FB35B1
:101D4200FF3E031DA02E7B352E07FC007C08AF0052
:101D5200F1010130953145258E317F30FB007B0842
:101D6200F1000430953145258E318030FB007B082F
:101D7200F1000A30953145258E3120002608FB00FE
:101D82007B08F1002508FC007C08F200093096313E
:101D9200A0268E3120002F08FB007B08F1000D30B9
:101DA200953145258E3120003208FB007B08F10079
:101DB2000130953145258E310C3020003206031D4D
:101DC200E32EE42EED2E8030FB007B08F4000D3074
:101DD2009431BC248E31ED2ED0302000B600073075
:101DE200B70036083704031DF72EF82EFA2E1C2FE3
:101DF2001C2F043095317A258E31FB007B082000A0
:101E0200B30064303306031D072F082F0A2F1C2F3F
:101E12001C2F331C0D2F0E2F112F0330FF2FFF2FDE
:101E22000130B6020030B73B36083704031D1A2FC3
:101E32001B2FFA2E1C2F36083704031D212F222FA9
:101E4200252F0330FF2FFF2F063095317A258E3153
:101E5200FB007B082000B400340813390319322F29
:101E6200332F362F0130FF2FFF2FB9012708031917
:101E72003B2F3C2F832F28080319402F412F832FFC
:101E82000A3095317A258E31FB007B082000B8009C
:101E9200280886008701380801020318512F522FA3
:101EA200552F0430FF2FFF2F3808FB00280886002B
:101EB20087017B0881003808FB007B08F1002708B6
:101EC200FC007C08F2002A08FD007D08F3000930BE
:101ED2008A3189228E310C3095317A258E3107393B
:101EE200FB007B082000B90029080319792F7A2FFB
:101EF200832F3908FB002908860087017B088100AF
:101F0200832F832FB41D862F872F8A2F0230FF2F16
:101F1200FF2F270803198E2F8F2FFD2F2808031953
:101F2200932F942FFD2F2B080319982F992FFD2FF4
:101F32002808860087010103031DA02FA12FAA2FC5
:101F420004303906031DA62FA72FAA2FFF30FF2F1B
:101F5200FF2F28088600870102300102031CB22FDE
:101F6200B32FB92F39080319B72FB82FBC2FB92FA8
:101F72000730FF2FFF2F2808860087010108FE3E49
:101F8200FB007B08F7003030FC007C08F8002708D3
:101F92008A3119228E31FD007D082000B5003508F6
:101FA2000319D42FD52FD82F3508FF2FFF2F28083C
:101FB200860087010108FE3E2707FB007B0886009A
:101FC200870101083006031DE72FE82FF92F2808A3
:101FD200860087010108FF3E2707FB007B08860079
:101FE2008701010831060319F72FF82FFD2FF92F6A
:101FF2000730FF2FFF2FFD2F0030FF2F0800003486
:10200200873498340F344934FF3407341934BF34D9
:1020120022343034493459346334AD34CA347F34D1
:10202200E3344E3403345C344E3449345034473450
:102032009A3437346134E734E234C6342E3475349A
:102042005A34ED3404343D3402344B34783432346F
:10205200FF3458343B347C34E93400349434B4349F
:102062004A3459345B34FD34C9342934DF343534CD
:10207200963498349E344F34303432348D34543460
:10208200613472346A3465347434613420344434D3
:102092006534743465346334743461346434613463
:1020A20020340D340A3400340034D63478348C347D
:1020B200E234AA340C3418342A34B8347A347F34F3
:1020C200D3346A34CF340B34B134373463344B34C1
:1020D2006934AE349134C734C3349734AE34773470
:1020E200F4343734D7349B347C34F5343C341134F3
:1020F2008F341534C334D734C1345B3400342A34BA
:10210200D0347534DE349E3451346434AB343E34CE
:10211200E9341534B534AB3456349A3498348234B5
:102122002634EA342A3462340034EB346634BA3466
:102132005734BF3423349534D034E3340D343D3432
:10214200273489345C34DE349D343B34A734003484
:1021520021345B348934823451343A34EB340234DE
:102162000C34A534003449347C3484344D34B334D3
:10217200CC34D2341B3481345D3448347634D53493
:10218200713461342134A93486349634833438343A
:10219200CF349D345B346D34DC341534BA343E3480
:1021A2007D3495343B342F340034C6343734D5343F
:1021B2003234B73457345C34C234D8347C344D347E
:1021C200D9347034C73473341034E634D234AA3478
:1021D2005E34A1343E345A341434AF343034613472
:1021E200C9347034DB342E34643422347234B5345E
:1021F200BD346534F434EC342234BC34D334723418
:102202003534CD34AA3441341F34A734F334533433
:102212001434DE347E340234D9340F34B5345E34AF
:0822220025341D342934793400
:10287C001630210097000800640080010131890B9B
:10288C00432C003428346E3475346C346C34293455
:10289C0000340830F8007808F40008309431AA2489
:1028AC0094310800592C2000111E5D2C5E2C592CE3
:1028BC005F2C700823009A000800083023009F004A
:1028CC0090309D0024309E0040309B0003309C00D3
:1028DC00080097319627943194318B24943194319C
:1028EC003E2494319431632494310800F000700834
:1028FC0024009100812C2000911D852C862C812C8C
:10290C009111240011088A2C0800703021009900C4
:10291C009A01980124009D01932C21001A1F972CD9
:10292C00982C932C992C08002000D6005608D40023
:10293C005408CA005308D5005508CB0026308831FE
:10294C0090209431A92C0800F700770895317A254E
:10295C009431F5007508F60074097605F5007508D4
:10296C00F10077089531452594310800F700770878
:10297C0095317A259431F5007508F60076087404C3
:10298C00F5007508F100770895314525943108005C
:10299C002000CA01CF3084313E2494312000D10074
:1029AC005108D20052080319DC2CDE2C0130DF2C2C
:1029BC000030E02C0800F300F201E42C731CE72C2F
:1029CC00E82CED2C7008F1007108F207ED2C0310C7
:1029DC00F00D0310F30C7308031DF52CF62CE42CEE
:1029EC00F72C7208F92C08007008D03EF200FF306A
:1029FC00713DF300003073020A3003197202031C9C
:102A0C00082D0A2D01300B2D0030F400F50174084F
:102A1C00F0007508F100122D08007008BF3EF2009E
:102A2C00FF30713DF300003073021A30031972024B
:102A3C00031C212D232D0130242D0030F400F50131
:102A4C007408F0007508F1002B2D080070089F3EEB
:102A5C00F200FF30713DF300003073021A3003199D
:102A6C007202031C3A2D3C2D01303D2D0030F40038
:102A7C00F5017408F0007508F100442D0800F3000E
:102A8C0022008E10492D73357E3994317C2495317A
:102A9C00F20072082100CE00710894317C2495312B
:102AAC00F20072082100CD005B2D22008E145E2DE9
:102ABC000800143095317A259531F4007408F5002E
:102ACC0003307505F4000330740603196E2D6F2D59
:102ADC00792D75080338F4007408F1001430953121
:102AEC0045259531792D0800F20022008E107E2D9F
:102AFC0072357E39803894317C249531F10071081F
:102B0C002100CE00003094317C249531F100710805
:102B1C00F300902D22008E14932D7308952D080030
:102B2C0020307004F20000307104F30072089F3EF4
:102B3C00F400FF30733DF500003075021A300319B4
:102B4C007402031CAA2DAC2D0130AD2D0030F60003
:102B5C00F7017608F0007708F100B42D0800F401B5
:102B6C00F501B82D701CBB2DBC2DC02D7208F407BF
:102B7C007308F53D0130F235F30D890BC12D013091
:102B8C00F136F00C890BC62D70087104031DCF2D86
:102B9C00D02DB82DD12D7508F1007408F000D62D6C
:102BAC0008007108F5007008F400E12D0130F00701
:102BBC000030F13DE12D7008860071088700010896
:102BCC00031DE92DEA2DDC2DEB2D7409F20075099E
:102BDC00F300F20A0319F30A70087207F000710887
:102BEC00733DF100F92D0800F401F40A2030700651
:102BFC0071040319022E032E142E7008F73EF200F6
:102C0C00FF30713DF300003073020530031972027E
:102C1C00031C112E122E142EF401142E7408F20023
:102C2C00F3017208F0007308F1001C2E080020005C
:102C3C00A300A101A201362E2008F900FA0179089F
:102C4C00F0007A08F1007808FB007B08F20088316C
:102C5C003B20963101302000A1070030A23D362EDA
:102C6C0021082307F9007908860001308700010844
:102C7C00FA007A08A0002008031D452E462E222EAD
:102C8C00472E08000F30F4007408F1000130953124
:102C9C0045259631F601522E0330F5000830F4002C
:102CAC007730890B572EF40B572EF50B572E00004F
:102CBC00013095317A25963110390319662E672E1D
:102CCC00732E0130F4007408F60703307602031CEF
:102CDC00702E712E522E732E732E08002000C900F8
:102CEC003030C0004008C8004808C0004008A400AC
:102CFC004908C1004108A5003A08C2004208A600D4
:102D0C003B08C3004308A7003C08C4004408A800C3
:102D1C003D08C5004508A9003E08C6004608AA00A3
:102D2C003F08C7004708AB000C308E318426963123
:102D3C009F2E0800F50022008E10A42E75357E39CA
:102D4C0094317C249631F30073082100CE00F601F7
:102D5C00C22E76087207F3007308860087010108FB
:102D6C0094317C249631F40074082100CD0001309C
:102D7C00F3007308F607C22E71087602031CC72EE7
:102D8C00C82EAF2EC92E22008E14CC2E0800FA00AD
:102D9C00F9017608031DD32ED42EF42E7A08F000F8
:102DAC000130F1009531D72596317008F70077087E
:102DBC00F600F42EF42E79087A07F70077088600CF
:102DCC00013087000108F8007808F000943158248D
:102DDC0096310130F7007708F907F42E760879025E
:102DEC00031CF92EFA2EE12EFB2E08002100A20066
:102DFC0068302000EA006A082100A30022082000A5
:102E0C00EA006A082100A400A501A601A701A801F7
:102E1C0020006708DF006608DE00A330EA006A08BD
:102E2C00E000A4309731CB27963120005F082100B9
:102E3C00A10020005E082100A00025082207200028
:102E4C00EA006A0886000130870081012D2F0800F6
:102E5C0076089F3EF800FF30773DF900003079028C
:102E6C001A3003197802031C3C2F3E2F01303F2FE0
:102E7C000030FA00FB017A08FC007B08FD00522FA1
:102E8C007708F1007608F00095312C259731710800
:102E9C00FD007008FC00522F7C087D040319572F8D
:102EAC00582F602F5F307605F60000307705F7005D
:102EBC00602F602F080050302000CA004A08CD0057
:102ECC00CE010230CA004A08F7004F30CB004B0845
:102EDC00F8004D308A31192297312000CC004C0873
:102EEC00D100510803197B2F7C2F7E2F952F952F06
:102EFC000430CA004A08BA00BB01BC01BD01BE01C6
:102F0C00BF014D309631742697312000CB004B0811
:102F1C00D100952F952F952F952F952F952F080034
:102F2C0022008C018D018E01323021008C00F0309A
:102F3C008D00EC308E00C43023008E00F0308D00FC
:102F4C0011308C0024008D018C018E01210095170D
:102F5C0025008C018D018E01373026008C00F0305D
:102F6C008D00FF308E0012303D00A00001303C007F
:102F7C00A4001530A10014303D00920010303C002C
:102F8C00A00016303D00900008002000E3005F0810
:102F9C00E5005E08E4002100C501C601EB2F64309A
:102FAC002000E1006108C8006008E2006208C90066
:102FBC0063088031F4209731200048082100C507B0
:102FCC00200049082100C63DEB2F20006408840036
:102FDC00650885001200031DF42FF52FD52FF62F51
:102FEC00210046082000DF00210045082000DE00FB
:102FFC00FF2F080049346E3469346334693461340A
:10300C006E3464346F3420340D340A34003400349C
:10301C00003463341434003400340034003400348D
:10302C0000345834143443346134723464342034EE
:10303C005534493444343A34003425343034323441
:0E304C0058340034003440344F342034003403
:020000040001F9
:04000E00E4FFFFFF0D
:00000001FF
