:020000040000FA
:10000000803102288731D92F28346E3475346C340E
:100010006C34293400342000A701A801A001A101FB
:1000200016280130F6070030F73D1628A601A60A6B
:1000300076088400770885001200203A03192128E9
:100040002228382876088400770885000008F73EC3
:10005000F800FF3003180030F90000307902053055
:1000600003197802031C352836283828A6013828B9
:100070002608F800F9017808A2007908A30054289E
:1000800076088400770885000008F800F9017808F0
:10009000F0007908F100973136278031710820008F
:1000A000A3007008A200542822082304031D592825
:1000B0005A2811286628662801302000A000003048
:1000C000A1000130F6070030F73DA3287608840030
:1000D000770885000008F800F9017908003A03194B
:1000E0007228A32878082B3A03196128063A0319C5
:1000F0005C28A328A32876088400770885000008D8
:10010000D03EF800FF3003180030F900F809F90973
:10011000F80A0319F90A20002808F1002708F0005E
:100120000A30F2000030F30097311427803178084C
:1001300070072000A7007908713DA8000130F6077C
:100140000030F73DA3287608840077088500000872
:10015000D03EF800FF3003180030F900003079027B
:100160000A3003197802031CB628B8280130B928D0
:100170000030FA00FB017A082000A4007B08A500EB
:10018000D52876088400770885000008F800F90172
:100190007808F0007908F1009631742680317108F2
:1001A0002000A5007008A400D52824082504031DFC
:1001B000DA28DB287B28DC2820082104031DE1281D
:1001C000E228EE282709F8002809F900F80A03199F
:1001D000F90A7808F6007908F700F4282808F700EB
:1001E0002708F600F428F42808002000DD0048085D
:1001F00086008701403FCA00413FCB004A08840087
:100200004B0885001200253A031D07290829172CE1
:100210004808860087010130810741310318810AAF
:100220002100C701C801CB01CC01FF30C900FF305C
:10023000CA002000D301D4018529602921004B1474
:1002400020004808860087010130810741310318EA
:10025000810A85292100CB142000480886008701E7
:100260000130810741310318810A852921004B158E
:1002700020004808860087010130810741310318BA
:10028000810A85292100CB152000480886008701B6
:100290000130810741310318810A852921004B165D
:1002A000200048088600870101308107413103188A
:1002B000810A85290130D3000030D40085298529A1
:1002C000480886008701403FCA00413FCB004A08EA
:1002D00084004B0885000008CC00CD014D08003A91
:1002E000031973295A294C08203A03194229033A61
:1002F00003194E29083A03193629063A03191E290B
:100300001D3A03192A295A29852953085404031927
:100310008A298B29602921004B1C8F299029952936
:10032000FD30CB05FF30CC0595292000480886001C
:100330008701403FCA00413FCB004A0884004B0878
:10034000850012002A3A031DA629A729C8294808B2
:10035000860087010130810741310318810A49086D
:100360008600870101088400850102308107003F73
:100370002100C700013FC800C81FBF29C0292B2A80
:100380004B14C709C809C70A0319C80A2B2A2B2A04
:100390002000480886008701403FF600413FF700F3
:1003A00080310B20803177082100C8007608C70013
:1003B000E329200048088600870101308107413188
:1003C0000318810AE3292000480886008701403F7E
:1003D000CA00413FCB004A0884004B088500000852
:1003E000D03ECC00FF3003180030CD0000304D026D
:1003F0000A3003194C02031CFE29002A0130012A8D
:100400000030CE00CF014E08D5004F08D600232A79
:10041000480886008701403FCA00413FCB004A0898
:1004200084004B0885000008CC00CD014C08F0008A
:100430004D08F10096317426803171082000D600F5
:100440007008D500232A55085604031D282A292A96
:10045000D9292B2A2B2A2000480886008701403FF3
:10046000CA00413FCB004A0884004B0885001200B7
:100470002E3A031D3C2A3D2AD42A2100C901CA0173
:1004800020004808860087010130810741310318A8
:10049000810A480886008701403FCA00413FCB00DF
:1004A0004A0884004B08850012002A3A031D592A85
:1004B0005A2A702A48088600870101308107413195
:1004C0000318810A49088600870101088400850114
:1004D00002308107003F2100C900013FCA00D42A31
:1004E0002000480886008701403FF600413FF700A2
:1004F00080310B20803177082100CA007608C900BE
:100500008B2A20004808860087010130810741318D
:100510000318810A8B2A2000480886008701403F83
:10052000CA00413FCB004A0884004B088500000800
:10053000D03ECC00FF3003180030CD0000304D021B
:100540000A3003194C02031CA62AA82A0130A92A42
:100550000030CE00CF014E08D7004F08D800CB2A7C
:10056000480886008701403FCA00413FCB004A0847
:1005700084004B0885000008CC00CD014C08F00039
:100580004D08F10096317426803171082000D800A2
:100590007008D700CB2A57085804031DD02AD12A47
:1005A000812AD42AD42AD42A200048088600870128
:1005B000403FCA00413FCB004A0884004B088500F9
:1005C00012006E3A031DE52AE62A062B480886002B
:1005D00087010130810741310318810A49088600EB
:1005E0008701403F84008501810A0008CA004A084B
:1005F000D20052088600870121004508C03F460806
:10060000C13F2000C801C9013E2C3E2C480886008D
:100610008701403FCA00413FCB004A0884004B0895
:1006200085001200703A031D162B172B4A2B480821
:10063000860087010130810741310318810A49088A
:1006400086008701403F84008501810A0008CA00B6
:10065000CB01CC01CD014D08DC004C08DB004B0880
:10066000DA004A08D9005C08AF005B08AE005A08FF
:10067000AD005908AC007830CA004A08B0005D08E7
:100680008D310A25803120002D08C9002C08C800B2
:100690003E2C3E2C480886008701403FCA00413F5F
:1006A000CB004A0884004B0885001200733A031DF2
:1006B0005A2B5B2B7D2B4808860087010130810770
:1006C00041310318810A490886008701403F8400B0
:1006D0008501810A0008CA004A08D1005108CA00F1
:1006E0004A08F8005D088C312924803179082000FF
:1006F000C9007808C8003E2C3E2C480886008701B7
:10070000403FCA00413FCB004A0884004B088500A7
:100710001200783A03198D2B8E2BA02B48088600E7
:100720008701403FCA00413FCB004A0884004B0884
:1007300085001200583A031D9E2B9F2BE02BA02B07
:10074000480886008701403FCA00413FCB004A0865
:1007500084004B0885000008CC004C08D0004808F5
:10076000860087010130810741310318810A490859
:100770008600870101088400850102308107003F5F
:10078000CA00013FCB004A08D9004B08DA00DB0160
:10079000DC015C08AF005B08AE005A08AD005908E8
:1007A000AC005008CA004A08B0005D088D310A2527
:1007B000803120002D08C9002C08C8003E2C3E2C9A
:1007C000480886008701403FCA00413FCB004A08E5
:1007D00084004B0885001200253A031DF02BF12BF5
:1007E0000B2C48088600870101308107413103182E
:1007F000810A2530F0000030F1005D08CA004A0887
:10080000F20089314A21803101302000C8000030D7
:10081000C9003E2C3E2C4808860087010130810724
:1008200041310318810AC801C9013E2C3E2C4808F9
:1008300086008701403FCA00413FCB004A08840040
:100840004B0885000008CC00CD014C08F0004D0895
:10085000F1005D08CE004E08F20089314A21803156
:1008600020004808860087010130810741310318C4
:10087000810A0130C8000030C9003E2C0800210068
:10088000BE00AF01AF0A513020004A02031C492CC0
:100890004A2C4D2C0630D82FD82F8030CB004B0857
:1008A000F4000E309631362684312100A701BB2F8B
:1008B000C32C93302000CB004B082100B000BB01BB
:1008C000AA0120004A080319662C672C742C210009
:1008D0003E088600870105300102031C702C712C34
:1008E000742CAA01AA0A742C21002A08031D792C51
:1008F0007B2C01307C2C00302000CB004B082100E9
:10090000BA00D82C95302000CB004B082100B00055
:1009100003302000CB004B082100BB00AB012000BE
:100920004A080319942C952CA22C21003E0886001D
:10093000870108300102031C9E2C9F2CA22CAB01C6
:10094000AB0AA22C21002B08031DA72CA92C0130D7
:10095000AA2C00302000CB004B082100BA00D82C74
:1009600097302000CB004B082100B000063020005B
:10097000CB004B082100BB00BA01D82C0530D82F82
:10098000D82FD82CD82C21002F082000CB00CC0148
:100990004C08003A0319CD2CBE2C4B08013A031920
:1009A000592C033A0319822C013A0319B02CBE2C9E
:1009B00021003B082000CB000230CB35FF3E031D59
:1009C000DD2C4B35FF3A013E4A07CC004C08210094
:1009D000C400C41FEC2CED2CEF2CC401EF2C023012
:1009E0002000CB004B082100C3003A080319F92C62
:1009F000FA2C0B2D88302000CB0021004308B03E9C
:100A00008600870120004B0881000130CB004B0895
:100A10002100C3070B2D0830F0000030F10044081E
:100A2000F200F301F21BF3038A315522843170087E
:100A30002000CB007108CC000730210044052000C5
:100A4000CD00CE014D084E04031D272D292D013068
:100A50002A2D00304B07CF004F082100BD003D0874
:100A60000319332D342D7E2D3A08031D382D392DD1
:100A70003E2D0430A0000030A100422D0330A00024
:100A80000030A10020082000CB004B082100AD0061
:100A90003D082D0203184D2D4E2D552D2D082000FB
:100AA000CB004B082100BD00552DC101762D3B0820
:100AB0004107013E3E072000CB004B08860087011E
:100AC0000108CC0021004308B03E860087012000C9
:100AD0004C0881000130CB004B082100C3070130D6
:100AE0002000CB004B082100C107762D3D084102B4
:100AF000031C7B2D7C2D572D7E2D7E2D3A0803194E
:100B0000822D832D8A2D08302000CB004B08210038
:100B1000C4078A2DA801032F4408803A603E031CB5
:100B2000922D932DD02D70302000CB004B0821004A
:100B3000B10032083306340635062000CB004B08DE
:100B40002100B60007302000CB004B08F700B7307B
:100B5000CC004C08F800B0308A31BE22843120002D
:100B6000CD004D082100C20042080319B82DB92D4F
:100B7000BC2D4208D82FD82FC00109302000CB004F
:100B80004B082100A900B6302000CB004B08210003
:100B9000BF0003302000CB004B082100BC001D2EFD
:100BA000440807392000CB004B082100C000083062
:100BB000F0000030F1004408F200F301F21BF303EF
:100BC0008A315522843170082000CB004B08210067
:100BD000C1004108023E2000CB004B082100C300A9
:100BE00043082000CB000330CB35FF3E031DF42D1E
:100BF0004B35210040072000CC004C082100B100FB
:100C00004008031D042E062E0130072E0030430736
:100C10002000CB004B082100A9004308B03E200073
:100C2000CB004B082100BF004303FF3A093E2000E0
:100C3000CB004B082100BC001D2E40082000CB003B
:100C40004B082100AC002C082000CB000330CB3532
:100C5000FF3E031D272E4B35210040072000CC000E
:100C60004C08F1000D309631BF268431210029084F
:100C70002000CB004B08BA0021003F082000CC0028
:100C80004C08BB00BC30CD004D08BC00C030CE00CD
:100C90004E08BD0021002C082000CF004F08BE00E8
:100CA000BF01B0309731A72784312000D000500811
:100CB0002100C20002304206031D5F2E602EE52E89
:100CC0000E309631D92684312000CB004B0821000C
:100CD000AE00AE1E6C2E6D2E702E0230D82FD82F87
:100CE0002E081F392000CB004B082100B90039081D
:100CF000031D7B2E7C2E822E20302000CB004B0843
:100D00002100B90044082000CB00CC01CB1BCC0350
:100D10004C08803ACD0080304D02031D932E2100F7
:100D2000390820004B02031C962E972E9A2E053070
:100D3000D82FD82F210039082000CB004B082100E4
:100D4000C400440807392000CB004B082100C10033
:100D50004408FF3E07392000CB004B082100A600C5
:100D60000830F0000030F1004408F200F301F21BFB
:100D7000F3038A315522843170082000CB007108BA
:100D8000CC0021004108031DC62EC82E0130C92EFB
:100D9000003020004B07013ECD004D082100C3006C
:100DA00001302000CB002100260A2000D82ECB35B0
:100DB000890BD72E4B08CC0021004308B03E86009B
:100DC000870120004C088104032F210042080319E9
:100DD000EA2EEB2EEF2E4208D82FD82F032F4408EF
:100DE000803A603E031CF52EF62EF92EA801A80AC3
:100DF000032F20302000CB004B082100C400032F1C
:100E0000032F032F032F210028080319082F092F70
:100E10008C2D0A2F8830320603190F2F102F152F13
:100E20000230A2000030A300192F0330A2000030CE
:100E3000A30022082000CB004B082100C30088300B
:100E400032060319242F252F2A2F0430A400003046
:100E5000A5002E2F0330A4000030A5002408200098
:100E6000CB004B082100BD00C101552F4308B03E07
:100E70008600870101082000CB0021003B084107C4
:100E8000013E3E072000CC004C08860087014B083D
:100E900081000130CB004B082100C3070130200046
:100EA000CB004B082100C107552F3D084102031C10
:100EB0005A2F5B2F362F5C2F03303C06031D612F0A
:100EC000622F682F40080319662F672F6B2F682F3A
:100ED0000130D82FD82FF701F70AB2302000CB000D
:100EE0004B08F80021003F088A31BE2284312000DF
:100EF000CC004C082100C20042080319802F812F2A
:100F0000842F4208D82FD82F3F0A86008701320845
:100F10000106031D8C2F8D2F982F3F08023E86005F
:100F20008701330801060319962F972F9B2F982FBF
:100F30000730D82FD82F3F0886008701011DA12F29
:100F4000A22FA92F01302000CB004B082100AF07B2
:100F5000BB2FA701A70A3F088600870101082000D0
:100F6000CB0021003E080B3E8600870120004B0885
:100F70008100BB2FBB2F210027080319C02FC12FD1
:100F8000C32CC22F03302000CB004B08F0002100FF
:100F90002F0896315B268431013E2000CC002100D1
:100FA0003E088600870120004C0881000030D82FC1
:100FB00008000430840080308500DB30860000307B
:100FC000870007309531E4258731C5308400003033
:100FD000850016309531DE258731203084000130C0
:100FE00085003E309531DE258731A0308400013008
:100FF000850019309531DE25873120008B31A22BF9
:101000000800883173208831963105268831953162
:10101000DA2588319531EA25883108002100A200BF
:1010200068302000EA006A082100A300220820009E
:10103000EA006A082100A400A501A601A701A801F1
:1010400020006708DF006608DE00A330EA006A08B7
:10105000E000A4308831DC20883120005F082100C6
:10106000A10020005E082100A00025082207200022
:10107000EA006A0886000130870081013F280800E5
:1010800076089F3EF800FF30773DF9000030790286
:101090001A3003197802031C4E28502801305128B9
:1010A0000030FA00FB017A08FC007B08FD00642890
:1010B0007708F1007608F0009631A626883171088D
:1010C000FD007008FC0064287C087D040319692871
:1010D0006A2872285F307605F60000307705F70041
:1010E00072287228080022008C018D018E01373091
:1010F00021008C00F0308D0045308E00013023003F
:101100008E0030308D0017308C0024008D018C0152
:101110008E012100951725008C018D018E0137303D
:1011200026008C00F0308D00FF308E0012303C0025
:10113000A4001630A10014303D00A1001230A5001B
:1011400017303C00A00010303D00A70008005030D0
:101150002000CA004A08CD00CE010230CA004A0869
:10116000F7004F30CB004B08F8004D308A31BE22DB
:1011700088312000CC004C08D10051080319C12847
:10118000C228C428DB28DB280430CA004A08BA0079
:10119000BB01BC01BD01BE01BF014D309731A72786
:1011A00088312000CB004B08D100DB28DB28DB286E
:1011B000DB28DB28DB2808002000E3005F08E500CF
:1011C0005E08E4002100C501C601FC28643020004F
:1011D000E1006108C8006008E2006208C900630815
:1011E0008031F5208831200048082100C507200003
:1011F00049082100C63DFC282000640884006508D9
:1012000085001200031D05290629E628072921006B
:1012100046082000DF00210045082000DE001029DC
:10122000080002302000D7005708DC00F10112301E
:101230009631BF268931F10113309631BF268931AD
:1012400026302000D7005708F10024309631BF2601
:1012500089315C302000D7005708D30059309631CF
:10126000142689312000D8005808DB005B080319D8
:101270003A293B29422902305B06031D40294129B6
:10128000462942290130492949294929003049295B
:1012900049290800720803194E294F295529720857
:1012A000031D532954295A295529700888310020D3
:1012B00089319E297208033E8600870116000104C9
:1012C00003196329642982297208033E8600870175
:1012D000403FF300413FF400720A86008701403F1F
:1012E000F500413FF6007608803AF7007408803A2E
:1012F0007702031D7D29730875020318802981294F
:101300009E2982297008F300720886008701720AFC
:101310008400850100080107F4007408860001308C
:10132000870073088100720A8600870101308107F7
:1013300041310318810A9E299E299E290800200018
:10134000D0004A080319A529A629B0294B08860010
:101350008701023001020318AE29AF29B329B02951
:101360000430F429F4298030CC004C08F4000E300D
:1013700096313626893107302000CC004C08D20047
:10138000BA01BA0A4A08CC004C08BB004B08CD0091
:101390004D08BC005230CE004E08BD00BE01BF015A
:1013A00050309731A72789312000CF004F08D10056
:1013B00051080319DC29DD29E0295108F429F42911
:1013C0004B088600870102300106031DE829E92940
:1013D000EF2952080319ED29EE29F229EF290130EE
:1013E000F429F4290030F42908002000AB00210082
:1013F0004B1CFB29FC29062A20002B08FC007C083A
:10140000F800240897317C278931062A2000A61B82
:101410000A2A0B2A102A2608AA002508A900122A3F
:10142000A901AA01A701A801272A2030F000003055
:10143000F10020002B08FC007C08F20089314A21D1
:10144000893101302000A7070030A83D272A28084D
:10145000803AFC002A08803A7C02031D312A2908C0
:101460002702031C342A352A152A21004B18392A51
:101470003A2A442A20002B08FC007C08F8002408A3
:1014800097317C278931442A20002408F00001305C
:10149000F100973159278931200029087007A400ED
:1014A0002A08713DA500542A0800F601F11F592AA7
:1014B0005A2A622AF009F109F00A0319F10AF60121
:1014C000F60A622AF31F652A662A702AF209F309CE
:1014D000F20A0319F30A0130F4007408F606702AC0
:1014E000F701F801700871040319772A782AAD2AE8
:1014F000F501F50A852A0130F035F10D890B7C2ABA
:101500000130F4007408F507852AF11F882A892A1A
:101510007B2A8B2A8B2A0130F735F80D890B8C2A10
:1015200071087302031D962A70087202031C992A1F
:101530009A2AA02A7008F2027108F33B7714A02AB5
:101540000130F136F00C890BA12A0130F502031DA0
:10155000AA2AAB2A8B2AAD2AAD2A76080319B12A0A
:10156000B22AB82AF709F809F70A0319F80AB82ABB
:101570007808F1007708F000BD2A08002000A300D9
:10158000F10101309631BF268A310430F900790823
:10159000F10005309631BF268A318030F900790894
:1015A000F1000A309631BF268A317708F9007908B0
:1015B000F10020002308FA007A08F2000930973180
:1015C000D3278A310330F9007908F10001309631D0
:1015D000BF268A3188302000A1001330A2002108E4
:1015E0002204031DF42AF52AF72A2B2B2B2B053076
:1015F0009631D9268A31F90079082000A000201DF3
:10160000022B032B1F2BF10101309631BF268A31AB
:1016100022309631D9268A31F90078088600870170
:101620007908810021309631D9268A31F900780A6B
:10163000860087017908810000302D2B2D2B013089
:101640002000A1020030A23B21082204031D292B07
:101650002A2BF72A2B2B03302D2B0800F8007108BA
:10166000031D332B342B362BA12BA12BF901382B47
:1016700022000E123B2B0130F10278357E39803882
:101680009531F6258B31F40074082100CE007308E3
:1016900003194B2B4C2B892BFF30F400730A512B71
:1016A000F435890B502B7408F5007508F700783570
:1016B0007E3980389531F6258B31F4007408F600B8
:1016C00077087605F400720886008701770901051E
:1016D0007404F500720886008701750881000130E6
:1016E000F4007408F907892B892B78357E39803806
:1016F0009531F6258B31F40079087207F5007508ED
:1017000086008701740881000130F4007408F9072D
:10171000892B71087902031C8E2B8F2B752B902B34
:1017200000309531F6258B31F40079087207F50009
:10173000750886008701740881009E2B22000E1612
:10174000A12B0800883101208B31A62B8931112172
:101750008B31003A0319AD2BAE2B0F2C40302000FB
:10176000E6009030E700403088310E208B31963112
:1017700048268B31003A0319BE2BBF2B192C1D3084
:101780002000E6009830E700403088310E208B3191
:101790002000EF01012C6F08D03E86008701103039
:1017A0000102031CD42BD52BDA2B2F30ED009830FF
:1017B000EE00DF2B2F30ED009830EE00DF2B6E08AF
:1017C000E7006D08E600403088310E208B3127306D
:1017D0002000E6009830E7006F08D03E86008701C1
:1017E0000108EB00EC016B08E8006C08E9004030F0
:1017F00088310E208B3101302000EB006B08EF07A1
:10180000012C21004F0820006F02031C082C092C1A
:10181000CB2B0A2C8831A7208B31192C192C0030A6
:101820002000E6009830E700403088310E208B31F0
:10183000192C05302000EC000F30EB00F130890B43
:101840001F2CEB0B1F2CEC0B1F2CA62BA62B803177
:1018500002282000AB00DB308600003087002030FB
:101860008400003085000730FA0016001A00FA0BD9
:10187000352C7808FA007A08AC002C08031D412C9E
:10188000422C472C2030FA007A08AC00472C2C0858
:10189000F0000030F100973159278C317108200099
:1018A000B0007008AF0021004A082000AE002100FF
:1018B00049082000AD00AE1B5E2C5F2C742C2E0856
:1018C000803AFA003008803A7A02031D692C2F080A
:1018D0002D02031C6C2C6D2C6F2C742C742C20008E
:1018E0002E08B0002D08AF0020003008AE002F08F1
:1018F000AD00210048082000AA0021004708200070
:10190000A90021004B18852C862CAB2C9A2C9A2CE4
:101910002030F0000030F10020002B08FA007A0897
:10192000F20089314A218C3101302000AF070030AC
:10193000B03D9A2C20003008803AFA002A08803AFC
:101940007A02031DA52C29082F02031CA82CA92C00
:10195000882CAB2CAB2C2000A701A801CB2C20009D
:101960002C08860087010108FA00FB017A08F000C4
:101970007B08F1002B08FC007C08F20089314A2129
:101980008C310130FA007A082000AC070130A7073B
:101990000030A83DCB2C2808803AFA002E08803A67
:1019A0007A02031DD52C2D082702031CD82CD92C14
:1019B000AF2C21004B1CDD2CDE2C032DF22CF22C45
:1019C0002030F0000030F10020002B08FA007A08E7
:1019D000F20089314A218C3101302000AF070030FC
:1019E000B03DF22C20003008803AFA002A08803AF4
:1019F0007A02031DFD2C29082F02031C002D012D46
:101A0000E02C032D032D20003008F9002F08F800EA
:101A1000092D08002000BB002100CA1B102D112D2C
:101A2000152DFD30CB05FF30CC054A08803A20004B
:101A3000B10080303102031D202D01302100490208
:101A40000318232D242D2A2D01302000BC00003046
:101A5000BD00322D21004A082000BD0021004908A8
:101A60002000BC00210048082000BF0021004708DA
:101A70002000BE0021004B1E3E2D3F2D442DFE3088
:101A80002000BE07FF30BF3D20002F08C3002E08F6
:101A9000C2002D08C1002C08C0001F30C400003057
:101AA000C5004408203E8600013087008101162EC3
:101AB000FF302000C407FF30C53D0F304005C60091
:101AC00000304105C7004708803AB100803031023C
:101AD000031D6C2D0A304602031C6F2D702D782DCE
:101AE00020004608573EC6000030473DC700802D05
:101AF00020004608303EC6000030473DC700802D1C
:101B00003008BF3EB100FF3003180030B200003093
:101B100032021A3003193102031C8F2D912D01302E
:101B2000922D0030B300B4013308B7003408B80078
:101B3000A92D3008B100B2013108F0003208F100DF
:101B400096318D268D3171082000B8007008B700DD
:101B5000A92D370838040319AE2DAF2DED2D2030F7
:101B60004604B10000304704B20031089F3EB30084
:101B7000FF30323DB400003034021A300319330212
:101B8000031CC32DC52D0130C62D0030B500B60194
:101B90003508B9003608BA00DA2D4708F1004608C2
:101BA000F0009631F5268D3171082000BA007008DA
:101BB000B900DA2D39083A040319DF2DE02DED2D97
:101BC0004708F7004608F600883140208D31770835
:101BD0002000C7007608C600ED2D4608B100440875
:101BE000203E86000130870031088100FF30BC07AD
:101BF000FF30BD3DFF30BE07FF30BF3D4008B100A4
:101C00004108B2004208B3004308B4000430B436BF
:101C1000B30CB20CB10C890B072E3408C300330887
:101C2000C2003208C1003108C000162E4508803AB3
:101C3000B10080303102031D1F2E02304402031C0C
:101C4000222E232E4E2E200043084204410440043D
:101C5000031D2B2E2C2E582D3D08803AB1008030CC
:101C60003102031D352E01303C020318382E392E67
:101C7000582D20003F08803AB10080303102031D0A
:101C8000432E01303E02031C462E472E4E2E2100CD
:101C9000CB184B2E4C2E582D4E2E4E2E21004B1E67
:101CA000522E532E6F2EFF302000C407FF30C53D4B
:101CB0003008B1004408203E86000130870031081A
:101CC0008100FF30C407FF30C53D3030B10044080B
:101CD000203E860001308700310881006F2E2000F1
:101CE0004408203EB1003108A4003F08A6003E0889
:101CF000A5003B088931F5218D3120002508AD0074
:101D00002408AC00832E08002000B2002908031D1F
:101D10008A2E8B2E8E2EAC01AD01992E29088600BD
:101D200087010108FB00FC017B08AC007C08AD00CA
:101D3000992E2C08FB007B08AE002A08FB0003301C
:101D4000FB35FF3E031DA02E7B352E07FC007C08D3
:101D5000AF00F10101309631BF268E317F30FB009C
:101D60007B08F10004309631BF268E318030FB00B5
:101D70007B08F1000A309631BF268E3120002608FC
:101D8000FB007B08F1002508FC007C08F20009300C
:101D90009731D3278E3120002F08FB007B08F100FC
:101DA0000D309631BF268E3120003208FB007B08B3
:101DB000F10001309631BF268E310C302000320602
:101DC000031DE32EE42EED2E8030FB007B08F40093
:101DD0000D30963124268E31ED2ED0302000B60005
:101DE0000730B70036083704031DF72EF82EFA2EF9
:101DF0001C2F1C2F04309631D9268E31FB007B0816
:101E00002000B30064303306031D072F082F0A2F6C
:101E10001C2F1C2F331C0D2F0E2F112F0330FF2FC3
:101E2000FF2F0130B6020030B73B36083704031DE0
:101E30001A2F1B2FFA2E1C2F36083704031D212FB3
:101E4000222F252F0330FF2FFF2F06309631D92662
:101E50008E31FB007B082000B400340813390319CD
:101E6000322F332F362F0130FF2FFF2FB9012708D4
:101E700003193B2F3C2F832F28080319402F412F94
:101E8000832F0A309631D9268E31FB007B08200043
:101E9000B800280886008701380801020318512F6E
:101EA000522F552F0430FF2FFF2F3808FB00280832
:101EB000860087017B0881003808FB007B08F10061
:101EC0002708FC007C08F2002A08FD007D08F300CA
:101ED00009308B312E238E310C309631D9268E313C
:101EE0000739FB007B082000B90029080319792F66
:101EF0007A2F832F3908FB002908860087017B0889
:101F00008100832F832FB41D862F872F8A2F0230C5
:101F1000FF2FFF2F270803198E2F8F2FFD2F280843
:101F20000319932F942FFD2F2B080319982F992F06
:101F3000FD2F2808860087010103031DA02FA12F74
:101F4000AA2F04303906031DA62FA72FAA2FFF3072
:101F5000FF2FFF2F28088600870102300102031C93
:101F6000B22FB32FB92F39080319B72FB82FBC2FB1
:101F7000B92F0730FF2FFF2F28088600870101089F
:101F8000FE3EFB007B08F7003030FC007C08F800C8
:101F900027088A31BE228E31FD007D082000B50061
:101FA00035080319D42FD52FD82F3508FF2FFF2F31
:101FB0002808860087010108FE3E2707FB007B08F2
:101FC0008600870101083006031DE72FE82FF92F4F
:101FD0002808860087010108FF3E2707FB007B08D1
:101FE00086008701010831060319F72FF82FFD2F0E
:101FF000F92F0730FF2FFF2FFD2F0030FF2F080094
:102000000034873498340F344934FF34073419349A
:10201000BF3422343034493459346334AD34CA3493
:102020007F34E3344E3403345C344E34493450341A
:1020300047349A3437346134E734E234C6342E34CA
:1020400075345A34ED3404343D3402344B3478342E
:102050003234FF3458343B347C34E9340034943423
:10206000B4344A3459345B34FD34C9342934DF3450
:102070003534963498349E344F34303432348D3481
:1020800054346534203465346E3463346F346E34C4
:102090007434723461346D346F3473342034613489
:1020A0006C3465346C3475346C346C3461340A349B
:1020B00000340034D63478348C34E234AA340C340E
:1020C00018342A34B8347A347F34D3346A34CF3471
:1020D0000B34B134373463344B346934AE34913417
:1020E000C734C3349734AE347734F4343734D73408
:1020F0009B347C34F5343C3411348F341534C33480
:10210000D734C1345B3400342A34D0347534DE34EF
:102110009E3451346434AB343E34E9341534B53430
:10212000AB3456349A34983482342634EA342A3420
:1021300062340034EB346634BA345734BF34233459
:102140009534D034E3340D343D34273489345C3451
:10215000DE349D343B34A734003421345B3489347D
:10216000823451343A34EB3402340C34A534003424
:1021700049347C3484344D34B334CC34D2341B34BD
:1021800081345D3448347634D5347134613421344B
:10219000A9348634963483343834CF349D345B3458
:1021A0006D34DC341534BA343E347D3495343B34EC
:1021B0002F340034C6343734D5343234B73457343E
:1021C0005C34C234D8347C344D34D9347034C734A0
:1021D00073341034E634D234AA345E34A1343E343D
:1021E0005A341434AF3430346134C9347034DB348D
:1021F0002E34643422347234B534BD346534F4344E
:10220000EC342234BC34D33472343534CD34AA3473
:1022100041341F34A734F33453341434DE347E3461
:102220000234D9340F34B5345E3425341D342934A6
:022230007934FF
:102BB4001630210097000800640080010131890B60
:102BC400DF2D0034FE0012001E00FE0BE52D003444
:102BD400083023009F0090309D0024309E00403038
:102BE4009B0003309C000800F00070082400910052
:102BF400FB2D2000911DFF2D002EFB2D9111240093
:102C04001108042E08007030210099009A019801DF
:102C1400220096010D2E21001A1F112E122E0D2EA8
:102C2400132E08002000D6005608D4005408CA0009
:102C34005308D5005508CB00263089319F219631A1
:102C4400232E0800F70077089631D9269631F5002F
:102C54007508F60076087404F5007508F100770825
:102C64009631BF2696310800F70077089631D926A9
:102C74009631F5007508F60074097605F5007508B7
:102C8400F10077089631BF26963108002000CA016A
:102C9400CF3084313F2496312000D1005108D20036
:102CA40052080319562E582E0130592E00305A2E30
:102CB4000800F300F2015E2E731C612E622E672E53
:102CC4007008F1007108F207672E0310F00D03106D
:102CD400F30C7308031D6F2E702E5E2E712E720876
:102CE400732E08007008D03EF200FF30713DF300EF
:102CF400003073020A3003197202031C822E842EE0
:102D04000130852E0030F400F5017408F0007508D8
:102D1400F1008C2E08007008BF3EF200FF30713DB8
:102D2400F300003073021A3003197202031C9B2E45
:102D34009D2E01309E2E0030F400F5017408F00041
:102D44007508F100A52E080070089F3EF200FF30C0
:102D5400713DF300003073021A3003197202031C30
:102D6400B42EB62E0130B72E0030F400F5017408ED
:102D7400F0007508F100BE2E0800F30022000E12C8
:102D8400C32E73357E399531F6259631F2007208DB
:102D94002100CE0071089531F6259631F2007208B3
:102DA4002100CD00D52E22000E16D82E0800F200E8
:102DB40022000E12DD2E72357E3980389531F625CB
:102DC4009631F10071082100CE0000309531F625CE
:102DD4009631F1007108F300EF2E22000E16F22E48
:102DE4007308F42E080020307004F20000307104DF
:102DF400F30072089F3EF400FF30733DF50000308D
:102E040075021A3003197402031C092F0B2F0130A9
:102E14000C2F0030F600F7017608F0007708F10077
:102E2400132F0800F401F501172F701C1A2F1B2F04
:102E34001F2F7208F4077308F53D0130F235F30DC6
:102E4400890B202F0130F136F00C890B252F7008E7
:102E54007104031D2E2F2F2F172F302F7508F1000B
:102E64007408F000352F0800F401F40A20307006CD
:102E7400710403193E2F3F2F502F7008F73EF200C4
:102E8400FF30713DF3000030730205300319720204
:102E9400031C4D2F4E2F502FF401502F7408F200B5
:102EA400F3017208F0007308F100582F080071084C
:102EB400F5007008F400632F0130F0070030F13D95
:102EC400632F70088600710887000108031D6B2FAB
:102ED4006C2F5E2F6D2F7409F2007509F300F20A4E
:102EE4000319F30A70087207F0007108733DF100CA
:102EF4007B2F08002000A300A101A201952F200828
:102F0400F900FA017908F0007A08F1007808FB006A
:102F14007B08F20089314A21973101302000A10752
:102F24000030A23D952F21082307F9007908860077
:102F3400013087000108FA007A08A0002008031D68
:102F4400A42FA52F812FA62F08002000C900303000
:102F5400C0004008C8004808C0004008A400490850
:102F6400C1004108A5003A08C2004208A6003B0877
:102F7400C3004308A7003C08C4004408A8003D0857
:102F8400C5004508A9003E08C6004608AA003F0837
:102F9400C7004708AB000C308E3184269731D22FFE
:102FA4000800F50022000E12D72F75357E399531B1
:102FB400F6259731F30073082100CE00F601F52FB2
:102FC40076087207F30073088600870101089531BB
:102FD400F6259731F40074082100CD000130F30088
:102FE4007308F607F52F71087602031CFA2FFB2FDE
:102FF400E22FFC2F22000E16FF2F08000A34203483
:103004004E346F342034443465347434653463345A
:1030140074346134643461340D340A34003400345B
:103024000034EA34153400340034003400340034FD
:103034000034003400344334613472346434203452
:103044005534493444343A34003425343034323439
:0E30540058340034003440344F3420340034FB
:020000040001F9
:04000E00E4FFFFFF0D
:00000001FF
