:020000040000FA
:08000000803102288731ED2F49
:10088A000800163021009700080064008001013139
:10089A00890B4B2C0034512C2000111E552C562C40
:1008AA00512C572C700823009A00080008302300A6
:1008BA009F0090309D0024309E0040309B00033002
:1008CA009C000800863100268431843183248431D7
:1008DA0084314624843184315B2484310800F00059
:1008EA00700824009100792C2000911D7D2C7E2C0B
:1008FA00792C911124001108822C080070302100F3
:10090A0099009A01980124009D018B2C21001A1F3D
:10091A008F2C902C8B2C912C0800F30022000E12A5
:10092A00962C73357E39843174248431F20072082E
:10093A002000C2007108843174248431F2007208E4
:10094A002000C100A82C22000E16AB2C080014307F
:10095A008431C7248431F4007408F5000330750526
:10096A00F400033074060319BB2CBC2CC62C750882
:10097A000338F4007408F10014308431922484316D
:10098A00C62C0800F20022000E12CB2C72357E39DA
:10099A008038843174248431F10071082000C20047
:1009AA000030843174248431F1007108F300DD2CA5
:1009BA0022000E16E02C7308E22C0800F401F5015F
:1009CA00E62C701CE92CEA2CEE2C7208F40773084A
:1009DA00F53D0130F235F30D890BEF2C0130F1367C
:1009EA00F00C890BF42C70087104031DFD2CFE2CED
:1009FA00E62CFF2C7508F1007408F000042D08009D
:100A0A002000DF005B30DB005B08DE005F08DB00F4
:100A1A005B08E000E101E201E301E4015A08FC009D
:100A2A005908FB005E30DB005B08FD006030853151
:100A3A00A92585317C082000DD007B08DC006108DF
:100A4A005F07DB005B088600870181012C2D080007
:100A5A008431672485318631F126853184315B24DE
:100A6A00853140302000D9008830DA00C030853125
:100A7A0005258531402DF801C03085317E25853127
:100A8A0029302000E6009630E5007F30890B4B2D97
:100A9A00E50B4B2DE60B4B2D402D402D80310228C6
:100AAA00F7007708F2007208F600602D0130F200B4
:100ABA007208F707602D7708860087010108031D71
:100ACA00672D682D5B2D692D7608F2000030F30042
:100ADA00F209F309F20A0319F30A7708F40000305D
:100AEA00F50072087407F0007308753DF1007D2D5A
:100AFA000800FB00FC017808031D842D852DA12D1B
:100B0A007B088531552585317008F9007908F80088
:100B1A00A12DA12D7C087B07F900790886008701A1
:100B2A000108FA007A08F000843150248531013036
:100B3A00F9007908FC07A12D78087C02031CA62D70
:100B4A00A72D8F2DA82D08002000D6007C08D800DC
:100B5A007B08D700B901BA01C42D5730D400540814
:100B6A00F8007D08D5005508F900560887316C272A
:100B7A00853178082000B9077908BA3DC42D57088D
:100B8A008400580885001200031DCC2DCD2DB22DEE
:100B9A00CE2D3A08FC003908FB00D32D08000F308F
:100BAA00F4007408F1000130843192248531F60191
:100BBA00DE2D0330F5000830F4007730890BE32D81
:100BCA00F40BE32DF50BE32D000001308431C7242B
:100BDA00853110390319F22DF32DFF2D0130F40060
:100BEA007408F60703307602031CFC2DFD2DDE2D5A
:100BFA00FF2DFF2D080022008C018D018E0135305A
:100C0A0021008C00F0308D0065308E000530230005
:100C1A008E0030308D0016308C0024008D018C013E
:100C2A008E012100951725008C018D018E01373028
:100C3A0026008C00F0308D00FF308E003C00A401AD
:100C4A001630A10014303D00A10016309100173073
:100C5A003C00A00010303D00A700080072080319EC
:100C6A00372E382E3E2E7208031D3C2E3D2E432E63
:100C7A003E2E7008843145248631862E7208033E42
:100C8A00860087011600010403194C2E4D2E6B2E87
:100C9A007208033E86008701403FF300413FF4009B
:100CAA00720A86008701403FF500413FF600760848
:100CBA00803AF7007408803A7702031D662E73089B
:100CCA0075020318692E6A2E862E6B2E7008F300A1
:100CDA00720886008701720A8400850100080107EC
:100CEA00F40074088600870173088100720A86007E
:100CFA0087010130810741310318810A862E862E29
:100D0A00862E0800FA002400951A8C2E8D2EF02EBD
:100D1A0017303C00A0001630A10010303D00A7009B
:100D2A001430A1007A08F600F7017608F000770877
:100D3A00F1000330F2000030F3008431E3248631FD
:100D4A007008013EF8000030713DF900253078073F
:100D5A0084008930793D85000008240094007A08CF
:100D6A00F600F7017608F0007708F1000330F20088
:100D7A000030F3008431E32486317108850070085D
:100D8A008400253084078930853D00082A382400EC
:100D9A00950096017A08F600F7017608F0007708C0
:100DAA00F1000330F2000030F3008431E32486318D
:100DBA007008023EF8000030713DF90025307807CE
:100DCA0084008930793D85000008240092002100C2
:100DDA008E13F02EF02E08000030863187268631D9
:100DEA00F62E22000E16FA2EFA2E21008E15FD2E50
:100DFA0020008E19012F022F1E2F21008E11052F80
:100E0A0022008E11082F3530890B092F00000D2F73
:100E1A0022008E150330FC000830FB007730890B66
:100E2A00142FFB0B142FFC0B142F0000FD01FD0ADD
:100E3A001E2F7D08031D222F232F262F8531D4250F
:100E4A008631F1011230843192248631F101133056
:100E5A008431922486312630FB007B08F10024304D
:100E6A008431922486318030FB007B08F1002A30DD
:100E7A00843192248631A930FB007B08F1002B30A3
:100E8A008431922486310330FB007B08F1002C3038
:100E9A00843192248631E830FB007B08F1002D3042
:100EAA008431922486314030FB007B08F1001530F2
:100EBA008431922486313D30FB007B08F1001130E9
:100ECA008431922486318431AC2486310800FA00B8
:100EDA00780886008701403F2000CF00413FD000BC
:100EEA004F088400500885001200253A031D7E2F02
:100EFA007F2FC52F7808860087010130810741318D
:100F0A000318810ABB01BC01BF01C001FF30BD004B
:100F1A00FF30BE00780886008701403FCF00413F7E
:100F2A00D0004F088400500885001200253A031D9E
:100F3A009F2FA02FB92F78088600870101308107DB
:100F4A0041310318810A2530F0000030F1007A0897
:100F5A00CF004F08F2008631332687310130F8007E
:100F6A000030F900EC2FEC2F780886008701013059
:100F7A00810741310318810AF801F901EC2FEC2F9E
:100F8A00780886008701403F2000CF00413FD0000B
:100F9A004F088400500885000008D100D20151088A
:100FAA00F0005208F1007A08D3005308F2008631A3
:100FBA00332687317808860087010130810741315D
:100FCA000318810A0130F8000030F900EC2F0800FC
:100FDA0020308400003085002F3084314A24873144
:100FEA00A0308400003085003E3084314A248731A5
:100FFA00200085312D2D0034873498340F3449343C
:10100A00FF3407341934BF34223430344934593464
:10101A006334AD34CA347F34E3344E3403345C343D
:10102A004E344934503447349A3437346134E734CF
:10103A00E234C6342E3475345A34ED3404343D3433
:10104A0002344B3478343234FF3458343B347C34F1
:10105A00E93400349434B4344A3459345B34FD34BA
:10106A00C9342934DF343534963498349E344F34B5
:10107A00303432348D3454346534203465346E342B
:10108A0063346F346E347434723461346D346F3453
:10109A007334203461346C3465346C3475346C3494
:1010AA006C3461340A3400340034D63478348C34E5
:1010BA00E234AA340C3418342A34B8347A347F34FB
:1010CA00D3346A34CF340B34B134373463344B34C9
:1010DA006934AE349134C734C3349734AE34773478
:1010EA00F4343734D7349B347C34F5343C341134FB
:1010FA008F341534C334D734C1345B3400342A34C2
:10110A00D0347534DE349E3451346434AB343E34D6
:10111A00E9341534B534AB3456349A3498348234BD
:10112A002634EA342A3462340034EB346634BA346E
:10113A005734BF3423349534D034E3340D343D343A
:10114A00273489345C34DE349D343B34A73400348C
:10115A0021345B348934823451343A34EB340234E6
:10116A000C34A534003449347C3484344D34B334DB
:10117A00CC34D2341B3481345D3448347634D5349B
:10118A00713461342134A934863496348334383442
:10119A00CF349D345B346D34DC341534BA343E3488
:1011AA007D3495343B342F340034C6343734D53447
:1011BA003234B73457345C34C234D8347C344D3486
:1011CA00D9347034C73473341034E634D234AA3480
:1011DA005E34A1343E345A341434AF34303461347A
:1011EA00C9347034DB342E34643422347234B53466
:1011FA00BD346534F434EC342234BC34D334723420
:10120A003534CD34AA3441341F34A734F33453343B
:10121A001434DE347E340234D9340F34B5345E34B7
:10122A0025341D3429347934003400345B340434D1
:10123A0000340034003400340034003450340434B0
:06124A00003440344F3473
:020000040001F9
:04000E00E4FFFFFF0D
:00000001FF
